{
  "contractName": "EHRRegistry",
  "abi": [
    {
      "inputs": [],
      "stateMutability": "nonpayable",
      "type": "constructor"
    },
    {
      "anonymous": false,
      "inputs": [
        {
          "indexed": true,
          "internalType": "bytes32",
          "name": "recordHash",
          "type": "bytes32"
        },
        {
          "indexed": true,
          "internalType": "address",
          "name": "grantee",
          "type": "address"
        },
        {
          "indexed": true,
          "internalType": "address",
          "name": "granter",
          "type": "address"
        }
      ],
      "name": "AccessGranted",
      "type": "event"
    },
    {
      "anonymous": false,
      "inputs": [
        {
          "indexed": true,
          "internalType": "bytes32",
          "name": "recordHash",
          "type": "bytes32"
        },
        {
          "indexed": true,
          "internalType": "address",
          "name": "patient",
          "type": "address"
        },
        {
          "indexed": true,
          "internalType": "address",
          "name": "issuer",
          "type": "address"
        }
      ],
      "name": "RecordAdded",
      "type": "event"
    },
    {
      "anonymous": false,
      "inputs": [
        {
          "indexed": true,
          "internalType": "address",
          "name": "userAddress",
          "type": "address"
        },
        {
          "indexed": false,
          "internalType": "string",
          "name": "mailId",
          "type": "string"
        },
        {
          "indexed": false,
          "internalType": "enum EHRRegistry.Role",
          "name": "role",
          "type": "uint8"
        }
      ],
      "name": "UserRegistered",
      "type": "event"
    },
    {
      "inputs": [
        {
          "internalType": "bytes32",
          "name": "",
          "type": "bytes32"
        },
        {
          "internalType": "address",
          "name": "",
          "type": "address"
        }
      ],
      "name": "accessControl",
      "outputs": [
        {
          "internalType": "bool",
          "name": "",
          "type": "bool"
        }
      ],
      "stateMutability": "view",
      "type": "function",
      "constant": true
    },
    {
      "inputs": [],
      "name": "owner",
      "outputs": [
        {
          "internalType": "address",
          "name": "",
          "type": "address"
        }
      ],
      "stateMutability": "view",
      "type": "function",
      "constant": true
    },
    {
      "inputs": [
        {
          "internalType": "bytes32",
          "name": "",
          "type": "bytes32"
        }
      ],
      "name": "records",
      "outputs": [
        {
          "internalType": "address",
          "name": "issuer",
          "type": "address"
        },
        {
          "internalType": "uint256",
          "name": "timestamp",
          "type": "uint256"
        },
        {
          "internalType": "bytes32",
          "name": "dataHash",
          "type": "bytes32"
        },
        {
          "internalType": "address",
          "name": "patient",
          "type": "address"
        }
      ],
      "stateMutability": "view",
      "type": "function",
      "constant": true
    },
    {
      "inputs": [
        {
          "internalType": "address",
          "name": "",
          "type": "address"
        }
      ],
      "name": "users",
      "outputs": [
        {
          "internalType": "string",
          "name": "mailId",
          "type": "string"
        },
        {
          "internalType": "enum EHRRegistry.Role",
          "name": "role",
          "type": "uint8"
        },
        {
          "internalType": "bool",
          "name": "isRegistered",
          "type": "bool"
        }
      ],
      "stateMutability": "view",
      "type": "function",
      "constant": true
    },
    {
      "inputs": [
        {
          "internalType": "string",
          "name": "_mailId",
          "type": "string"
        },
        {
          "internalType": "enum EHRRegistry.Role",
          "name": "_role",
          "type": "uint8"
        }
      ],
      "name": "registerUser",
      "outputs": [],
      "stateMutability": "nonpayable",
      "type": "function"
    },
    {
      "inputs": [
        {
          "internalType": "bytes32",
          "name": "_recordHash",
          "type": "bytes32"
        },
        {
          "internalType": "address",
          "name": "_patientAddress",
          "type": "address"
        }
      ],
      "name": "addRecord",
      "outputs": [],
      "stateMutability": "nonpayable",
      "type": "function"
    },
    {
      "inputs": [
        {
          "internalType": "bytes32",
          "name": "_recordHash",
          "type": "bytes32"
        },
        {
          "internalType": "address",
          "name": "_grantee",
          "type": "address"
        }
      ],
      "name": "grantAccess",
      "outputs": [],
      "stateMutability": "nonpayable",
      "type": "function"
    },
    {
      "inputs": [
        {
          "internalType": "bytes32",
          "name": "_recordHash",
          "type": "bytes32"
        },
        {
          "internalType": "address",
          "name": "_userAddress",
          "type": "address"
        }
      ],
      "name": "checkAccess",
      "outputs": [
        {
          "internalType": "bool",
          "name": "",
          "type": "bool"
        }
      ],
      "stateMutability": "view",
      "type": "function",
      "constant": true
    }
  ],
  "bytecode": "0x608060405234801561001057600080fd5b50600380546001600160a01b03191633179055610cc2806100326000396000f3fe608060405234801561001057600080fd5b50600436106100885760003560e01c806340554c3a1161005b57806340554c3a146101015780638da5cb5b14610114578063a87430ba14610129578063e0219e411461014b57610088565b806301e647251461008d57806320f2bf00146100b9578063338e12eb146100d95780633e1fd0da146100ee575b600080fd5b6100a061009b366004610859565b61015e565b6040516100b094939291906109cf565b60405180910390f35b6100cc6100c7366004610871565b610193565b6040516100b091906109fa565b6100ec6100e736600461089c565b6101b3565b005b6100cc6100fc366004610871565b6102eb565b6100ec61010f366004610871565b610316565b61011c610486565b6040516100b091906109bb565b61013c610137366004610838565b610495565b6040516100b093929190610a27565b6100ec610159366004610871565b610545565b600160208190526000918252604090912080549181015460028201546003909201546001600160a01b03938416939192911684565b600260209081526000928352604080842090915290825290205460ff1681565b33600090815260208190526040902060010154610100900460ff16156101f45760405162461bcd60e51b81526004016101eb90610b37565b60405180910390fd5b604051806060016040528083815260200182600281111561022557634e487b7160e01b600052602160045260246000fd5b815260016020918201523360009081528082526040902082518051919261025192849290910190610774565b50602082015160018083018054909160ff199091169083600281111561028757634e487b7160e01b600052602160045260246000fd5b0217905550604091820151600190910180549115156101000261ff00199092169190911790555133907fc2e5d5da58bd71d1a2d14cdef02a4256d971b728088f8190d067ccfbae3bd73e906102df9085908590610a05565b60405180910390a25050565b60009182526002602090815260408084206001600160a01b0393909316845291905290205460ff1690565b33600090815260208190526040902060010154610100900460ff1661034d5760405162461bcd60e51b81526004016101eb90610c04565b6000828152600160205260409020600301546001600160a01b031633146103865760405162461bcd60e51b81526004016101eb90610b6c565b60016001600160a01b03821660009081526020819052604090206001015460ff1660028111156103c657634e487b7160e01b600052602160045260246000fd5b148061040f575060026001600160a01b03821660009081526020819052604090206001015460ff16600281111561040d57634e487b7160e01b600052602160045260246000fd5b145b61042b5760405162461bcd60e51b81526004016101eb90610a59565b60008281526002602090815260408083206001600160a01b0385168085529252808320805460ff1916600117905551339285917f7aeffe35f64b55a7c424c5fccc3fba0f3ac4ebd764cc737855b8734834458f2b9190a45050565b6003546001600160a01b031681565b6000602081905290815260409020805481906104b090610c3b565b80601f01602080910402602001604051908101604052809291908181526020018280546104dc90610c3b565b80156105295780601f106104fe57610100808354040283529160200191610529565b820191906000526020600020905b81548152906001019060200180831161050c57829003601f168201915b5050506001909301549192505060ff8082169161010090041683565b33600090815260208190526040902060010154610100900460ff1661057c5760405162461bcd60e51b81526004016101eb90610c04565b60013360009081526020819052604090206001015460ff1660028111156105b357634e487b7160e01b600052602160045260246000fd5b14806105f3575060023360009081526020819052604090206001015460ff1660028111156105f157634e487b7160e01b600052602160045260246000fd5b145b61060f5760405162461bcd60e51b81526004016101eb90610af0565b6001600160a01b03811660009081526020819052604081206001015460ff16600281111561064d57634e487b7160e01b600052602160045260246000fd5b1461066a5760405162461bcd60e51b81526004016101eb90610aa9565b6000828152600160205260409020546001600160a01b03161561069f5760405162461bcd60e51b81526004016101eb90610bbf565b60408051608081018252338082524260208084019182528385018781526001600160a01b038781166060870181815260008b815260018087528a822099518a549086166001600160a01b0319918216178b5597518a82015594516002808b0191909155915160039099018054999094169890961697909717909155948252858320848452808352868420805460ff199081168417909155868552925285832080549092161790559251909285917f7128472b12def19162547da62a300d57af631162f3d585d39af093beafc967e89190a45050565b82805461078090610c3b565b90600052602060002090601f0160209004810192826107a257600085556107e8565b82601f106107bb57805160ff19168380011785556107e8565b828001600101855582156107e8579182015b828111156107e85782518255916020019190600101906107cd565b506107f49291506107f8565b5090565b5b808211156107f457600081556001016107f9565b80356001600160a01b038116811461082457600080fd5b919050565b80356003811061082457600080fd5b600060208284031215610849578081fd5b6108528261080d565b9392505050565b60006020828403121561086a578081fd5b5035919050565b60008060408385031215610883578081fd5b823591506108936020840161080d565b90509250929050565b600080604083850312156108ae578182fd5b823567ffffffffffffffff808211156108c5578384fd5b818501915085601f8301126108d8578384fd5b81356020828211156108ec576108ec610c76565b604051601f8301601f191681018201848111828210171561090f5761090f610c76565b6040528281528483018201891015610925578687fd5b8282860183830137808301820196909652610941878201610829565b9450505050509250929050565b6003811061096c57634e487b7160e01b600052602160045260246000fd5b9052565b60008151808452815b8181101561099557602081850181015186830182015201610979565b818111156109a65782602083870101525b50601f01601f19169290920160200192915050565b6001600160a01b0391909116815260200190565b6001600160a01b03948516815260208101939093526040830191909152909116606082015260800190565b901515815260200190565b600060408252610a186040830185610970565b9050610852602083018461094e565b600060608252610a3a6060830186610970565b9050610a49602083018561094e565b8215156040830152949350505050565b60208082526030908201527f4163636573732063616e206f6e6c79206265206772616e74656420746f20446f60408201526f31ba37b9399037b91020b236b4b7399760811b606082015260800190565b60208082526027908201527f5265636f7264732063616e206f6e6c7920626520616464656420666f722070616040820152663a34b2b73a399760c91b606082015260800190565b60208082526027908201527f4f6e6c7920446f63746f7273206f722041646d696e732063616e20616464207260408201526632b1b7b932399760c91b606082015260800190565b6020808252818101527f55736572206164647265737320616c726561647920726567697374657265642e604082015260600190565b60208082526033908201527f4f6e6c79207468652070617469656e742063616e206772616e7420616363657360408201527239903a37903a3432b4b9103932b1b7b932399760691b606082015260800190565b60208082526025908201527f5265636f726420776974682074686973206861736820616c726561647920657860408201526434b9ba399760d91b606082015260800190565b60208082526017908201527f55736572206973206e6f7420726567697374657265642e000000000000000000604082015260600190565b600281046001821680610c4f57607f821691505b60208210811415610c7057634e487b7160e01b600052602260045260246000fd5b50919050565b634e487b7160e01b600052604160045260246000fdfea2646970667358221220e6ff0a3d4908d4b93921bff8368770b4350f25c3f9bb765ab39632ebb47b6cd564736f6c63430008000033",
  "immutableReferences": {},
  "source": "// SPDX-License-Identifier: MIT\npragma solidity ^0.8.0;\n\n/**\n * @title EHRRegistry\n * @dev Manages user roles, health record hashes, and access permissions on the blockchain.\n */\ncontract EHRRegistry {\n\n    enum Role { Patient, Doctor, Admin }\n\n    struct User {\n        string mailId;      // Off-chain identifier\n        Role role;          // User's role\n        bool isRegistered;  // Flag to check if user exists\n    }\n\n    struct Record {\n        address issuer;     // Address of the Doctor or Admin who added the record\n        uint256 timestamp;  // Time of issuance\n        bytes32 dataHash;   // SHA-256 hash of the medical record data\n        address patient;    // The patient this record belongs to\n    }\n\n    // Mapping from an Ethereum address to a User struct\n    mapping(address => User) public users;\n\n    // Mapping from a record hash to the full Record struct\n    mapping(bytes32 => Record) public records;\n\n    // Mapping to control access: recordHash => doctor/admin_address => hasAccess\n    mapping(bytes32 => mapping(address => bool)) public accessControl;\n\n    // Event logs for off-chain monitoring\n    event UserRegistered(address indexed userAddress, string mailId, Role role);\n    event RecordAdded(bytes32 indexed recordHash, address indexed patient, address indexed issuer);\n    event AccessGranted(bytes32 indexed recordHash, address indexed grantee, address indexed granter);\n\n    address public owner; // The contract deployer, likely the main hospital system\n\n    constructor() {\n        owner = msg.sender;\n    }\n\n    modifier onlyOwner() {\n        require(msg.sender == owner, \"Only the contract owner can perform this action.\");\n        _;\n    }\n\n    modifier isRegisteredUser() {\n        require(users[msg.sender].isRegistered, \"User is not registered.\");\n        _;\n    }\n\n    /**\n     * @dev Registers a new user (Patient, Doctor, or Admin).\n     * Can be called by anyone, simulating a public registration form.\n     */\n    function registerUser(string memory _mailId, Role _role) public {\n        require(!users[msg.sender].isRegistered, \"User address already registered.\");\n        users[msg.sender] = User({\n            mailId: _mailId,\n            role: _role,\n            isRegistered: true\n        });\n        emit UserRegistered(msg.sender, _mailId, _role);\n    }\n\n    /**\n     * @dev Adds a new medical record hash to the blockchain.\n     * Only callable by registered Doctors or Admins.\n     */\n    function addRecord(bytes32 _recordHash, address _patientAddress) public isRegisteredUser {\n        require(users[msg.sender].role == Role.Doctor || users[msg.sender].role == Role.Admin, \"Only Doctors or Admins can add records.\");\n        require(users[_patientAddress].role == Role.Patient, \"Records can only be added for patients.\");\n        require(records[_recordHash].issuer == address(0), \"Record with this hash already exists.\");\n\n        records[_recordHash] = Record({\n            issuer: msg.sender,\n            timestamp: block.timestamp,\n            dataHash: _recordHash,\n            patient: _patientAddress\n        });\n\n        // The patient automatically has access to their own record\n        accessControl[_recordHash][msg.sender] = true;\n        accessControl[_recordHash][_patientAddress] = true;\n\n        emit RecordAdded(_recordHash, _patientAddress, msg.sender);\n    }\n\n    /**\n     * @dev Grants access to a medical record.\n     * Only callable by the patient who owns the record.\n     */\n    function grantAccess(bytes32 _recordHash, address _grantee) public isRegisteredUser {\n        require(records[_recordHash].patient == msg.sender, \"Only the patient can grant access to their records.\");\n        require(users[_grantee].role == Role.Doctor || users[_grantee].role == Role.Admin, \"Access can only be granted to Doctors or Admins.\");\n\n        accessControl[_recordHash][_grantee] = true;\n        emit AccessGranted(_recordHash, _grantee, msg.sender);\n    }\n\n    /**\n     * @dev Checks if a user has access to a specific record.\n     */\n    function checkAccess(bytes32 _recordHash, address _userAddress) public view returns (bool) {\n        return accessControl[_recordHash][_userAddress];\n    }\n}",
  "sourcePath": "C:\\Users\\noris\\Documents\\Code\\contracts\\EHRRegistry.sol",
  "compiler": {
    "name": "solc",
    "version": "0.8.0+commit.c7dfd78e.Emscripten.clang"
  },
  "schemaVersion": "3.4.16",
  "updatedAt": "2025-11-26T06:17:14.036Z",
  "networkType": "ethereum",
  "devdoc": {
    "details": "Manages user roles, health record hashes, and access permissions on the blockchain.",
    "kind": "dev",
    "methods": {
      "addRecord(bytes32,address)": {
        "details": "Adds a new medical record hash to the blockchain. Only callable by registered Doctors or Admins."
      },
      "checkAccess(bytes32,address)": {
        "details": "Checks if a user has access to a specific record."
      },
      "grantAccess(bytes32,address)": {
        "details": "Grants access to a medical record. Only callable by the patient who owns the record."
      },
      "registerUser(string,uint8)": {
        "details": "Registers a new user (Patient, Doctor, or Admin). Can be called by anyone, simulating a public registration form."
      }
    },
    "title": "EHRRegistry",
    "version": 1
  },
  "userdoc": {
    "kind": "user",
    "methods": {},
    "version": 1
  }
}